ch4rli3kop at ubuntu in ~
$ sudo tcpdump icmp -XX         
[sudo] password for ch4rli3kop: 
tcpdump: verbose output suppressed, use -v or -vv for full protocol decode
listening on ens33, link-type EN10MB (Ethernet), capture size 262144 bytes
09:31:38.570433 IP ubuntu > dns.google: ICMP echo request, id 32849, seq 1, length 64
	0x0000:  0050 56f3 b3d7 000c 29b7 3656 0800 4500  .PV.....).6V..E.
	0x0010:  0054 60ab 4000 4001 dfb9 c0a8 298c 0808  .T`.@.@.....)...
	0x0020:  0808 0800 92e1 8051 0001 6ae6 b25e 0000  .......Q..j..^..
	0x0030:  0000 00b4 0800 0000 0000 1011 1213 1415  ................
	0x0040:  1617 1819 1a1b 1c1d 1e1f 2021 2223 2425  ...........!"#$%
	0x0050:  2627 2829 2a2b 2c2d 2e2f 3031 3233 3435  &'()*+,-./012345
	0x0060:  3637                                     67
09:31:38.584630 IP dns.google > ubuntu: ICMP echo reply, id 0, seq 0, length 8
	0x0000:  000c 29b7 3656 000c 2962 4b16 0800 4500  ..).6V..)bK...E.
	0x0010:  001c 0001 0000 4001 809c 0808 0808 c0a8  ......@.........
	0x0020:  298c 0000 ffff 0000 0000 0000 0000 0000  )...............
	0x0030:  0000 0000 0000 0000 0000 0000            ............
09:31:38.607453 IP dns.google > ubuntu: ICMP echo reply, id 32849, seq 1, length 64
	0x0000:  000c 29b7 3656 0050 56f3 b3d7 0800 4500  ..).6V.PV.....E.
	0x0010:  0054 21bb 0000 8001 1eaa 0808 0808 c0a8  .T!.............
	0x0020:  298c 0000 9ae1 8051 0001 6ae6 b25e 0000  )......Q..j..^..
	0x0030:  0000 00b4 0800 0000 0000 1011 1213 1415  ................
	0x0040:  1617 1819 1a1b 1c1d 1e1f 2021 2223 2425  ...........!"#$%
	0x0050:  2627 2829 2a2b 2c2d 2e2f 3031 3233 3435  &'()*+,-./012345
	0x0060:  3637                                     67
09:31:39.572428 IP ubuntu > dns.google: ICMP echo request, id 32849, seq 2, length 64
	0x0000:  0050 56f3 b3d7 000c 29b7 3656 0800 4500  .PV.....).6V..E.
	0x0010:  0054 61a3 4000 4001 dec1 c0a8 298c 0808  .Ta.@.@.....)...
	0x0020:  0808 0800 abd8 8051 0002 6be6 b25e 0000  .......Q..k..^..
	0x0030:  0000 e6bb 0800 0000 0000 1011 1213 1415  ................
	0x0040:  1617 1819 1a1b 1c1d 1e1f 2021 2223 2425  ...........!"#$%
	0x0050:  2627 2829 2a2b 2c2d 2e2f 3031 3233 3435  &'()*+,-./012345
	0x0060:  3637                                     67
09:31:39.577439 IP dns.google > ubuntu: ICMP echo reply, id 0, seq 0, length 8
	0x0000:  000c 29b7 3656 000c 2962 4b16 0800 4500  ..).6V..)bK...E.
	0x0010:  001c 0001 0000 4001 809c 0808 0808 c0a8  ......@.........
	0x0020:  298c 0000 ffff 0000 0000 0000 0000 0000  )...............
	0x0030:  0000 0000 0000 0000 0000 0000            ............
09:31:39.609252 IP dns.google > ubuntu: ICMP echo reply, id 32849, seq 2, length 64
	0x0000:  000c 29b7 3656 0050 56f3 b3d7 0800 4500  ..).6V.PV.....E.
	0x0010:  0054 21bc 0000 8001 1ea9 0808 0808 c0a8  .T!.............
	0x0020:  298c 0000 b3d8 8051 0002 6be6 b25e 0000  )......Q..k..^..
	0x0030:  0000 e6bb 0800 0000 0000 1011 1213 1415  ................
	0x0040:  1617 1819 1a1b 1c1d 1e1f 2021 2223 2425  ...........!"#$%
	0x0050:  2627 2829 2a2b 2c2d 2e2f 3031 3233 3435  &'()*+,-./012345
	0x0060:  3637                                     67
09:31:40.574046 IP ubuntu > dns.google: ICMP echo request, id 32849, seq 3, length 64
	0x0000:  0050 56f3 b3d7 000c 29b7 3656 0800 4500  .PV.....).6V..E.
	0x0010:  0054 61be 4000 4001 dea6 c0a8 298c 0808  .Ta.@.@.....)...
	0x0020:  0808 0800 58d1 8051 0003 6ce6 b25e 0000  ....X..Q..l..^..
	0x0030:  0000 38c2 0800 0000 0000 1011 1213 1415  ..8.............
	0x0040:  1617 1819 1a1b 1c1d 1e1f 2021 2223 2425  ...........!"#$%
	0x0050:  2627 2829 2a2b 2c2d 2e2f 3031 3233 3435  &'()*+,-./012345
	0x0060:  3637                                     67
09:31:40.581736 IP dns.google > ubuntu: ICMP echo reply, id 0, seq 0, length 8
	0x0000:  000c 29b7 3656 000c 2962 4b16 0800 4500  ..).6V..)bK...E.
	0x0010:  001c 0001 0000 4001 809c 0808 0808 c0a8  ......@.........
	0x0020:  298c 0000 ffff 0000 0000 0000 0000 0000  )...............
	0x0030:  0000 0000 0000 0000 0000 0000            ............
09:31:40.601410 IP ubuntu > _gateway: ICMP ubuntu udp port 59362 unreachable, length 158
	0x0000:  0050 56f3 b3d7 000c 29b7 3656 0800 45c0  .PV.....).6V..E.
	0x0010:  00b2 6a9a 0000 4001 3b12 c0a8 298c c0a8  ..j...@.;...)...
	0x0020:  2902 0303 d16f 0000 0000 4500 0096 21bf  )....o....E...!.
	0x0030:  0000 8011 44b9 c0a8 2902 c0a8 298c 0035  ....D...)...)..5
	0x0040:  e7e2 0082 1746 763b 8183 0001 0000 0001  .....Fv;........
	0x0050:  0000 0331 3430 0234 3103 3136 3803 3139  ...140.41.168.19
	0x0060:  3207 696e 2d61 6464 7204 6172 7061 0000  2.in-addr.arpa..
	0x0070:  0c00 01c0 1300 0600 0100 0000 0500 4108  ..............A.
	0x0080:  7072 6973 6f6e 6572 0469 616e 6103 6f72  prisoner.iana.or
	0x0090:  6700 0a68 6f73 746d 6173 7465 720c 726f  g..hostmaster.ro
	0x00a0:  6f74 2d73 6572 7665 7273 c047 0000 0001  ot-servers.G....
	0x00b0:  0009 3a80 0000 003c 0009 3a80 0009 3a80  ..:....<..:...:.
09:31:40.611304 IP dns.google > ubuntu: ICMP echo reply, id 32849, seq 3, length 64
	0x0000:  000c 29b7 3656 0050 56f3 b3d7 0800 4500  ..).6V.PV.....E.
	0x0010:  0054 21c0 0000 8001 1ea5 0808 0808 c0a8  .T!.............
	0x0020:  298c 0000 60d1 8051 0003 6ce6 b25e 0000  )...`..Q..l..^..
	0x0030:  0000 38c2 0800 0000 0000 1011 1213 1415  ..8.............
	0x0040:  1617 1819 1a1b 1c1d 1e1f 2021 2223 2425  ...........!"#$%
	0x0050:  2627 2829 2a2b 2c2d 2e2f 3031 3233 3435  &'()*+,-./012345
	0x0060:  3637                                     67
09:31:41.575670 IP ubuntu > dns.google: ICMP echo request, id 32849, seq 4, length 64
	0x0000:  0050 56f3 b3d7 000c 29b7 3656 0800 4500  .PV.....).6V..E.
	0x0010:  0054 61d1 4000 4001 de93 c0a8 298c 0808  .Ta.@.@.....)...
	0x0020:  0808 0800 fac9 8051 0004 6de6 b25e 0000  .......Q..m..^..
	0x0030:  0000 95c8 0800 0000 0000 1011 1213 1415  ................
	0x0040:  1617 1819 1a1b 1c1d 1e1f 2021 2223 2425  ...........!"#$%
	0x0050:  2627 2829 2a2b 2c2d 2e2f 3031 3233 3435  &'()*+,-./012345
	0x0060:  3637                                     67
09:31:41.580223 IP dns.google > ubuntu: ICMP echo reply, id 0, seq 0, length 8
	0x0000:  000c 29b7 3656 000c 2962 4b16 0800 4500  ..).6V..)bK...E.
	0x0010:  001c 0001 0000 4001 809c 0808 0808 c0a8  ......@.........
	0x0020:  298c 0000 ffff 0000 0000 0000 0000 0000  )...............
	0x0030:  0000 0000 0000 0000 0000 0000            ............
09:31:41.611778 IP dns.google > ubuntu: ICMP echo reply, id 32849, seq 4, length 64
	0x0000:  000c 29b7 3656 0050 56f3 b3d7 0800 4500  ..).6V.PV.....E.
	0x0010:  0054 21c2 0000 8001 1ea3 0808 0808 c0a8  .T!.............
	0x0020:  298c 0000 02ca 8051 0004 6de6 b25e 0000  )......Q..m..^..
	0x0030:  0000 95c8 0800 0000 0000 1011 1213 1415  ................
	0x0040:  1617 1819 1a1b 1c1d 1e1f 2021 2223 2425  ...........!"#$%
	0x0050:  2627 2829 2a2b 2c2d 2e2f 3031 3233 3435  &'()*+,-./012345
	0x0060:  3637                                     67
^C
13 packets captured
13 packets received by filter
0 packets dropped by kernel

